{
  "_format": "hh-sol-artifact-1",
  "contractName": "FileStorage",
  "sourceName": "contracts/FileStorage.sol",
  "abi": [
    {
      "inputs": [
        {
          "internalType": "address",
          "name": "_paymentToken",
          "type": "address"
        }
      ],
      "stateMutability": "nonpayable",
      "type": "constructor"
    },
    {
      "inputs": [],
      "name": "AccessControlBadConfirmation",
      "type": "error"
    },
    {
      "inputs": [
        {
          "internalType": "address",
          "name": "account",
          "type": "address"
        },
        {
          "internalType": "bytes32",
          "name": "neededRole",
          "type": "bytes32"
        }
      ],
      "name": "AccessControlUnauthorizedAccount",
      "type": "error"
    },
    {
      "inputs": [],
      "name": "ReentrancyGuardReentrantCall",
      "type": "error"
    },
    {
      "anonymous": false,
      "inputs": [
        {
          "indexed": true,
          "internalType": "string",
          "name": "ipfsHash",
          "type": "string"
        },
        {
          "indexed": true,
          "internalType": "address",
          "name": "owner",
          "type": "address"
        },
        {
          "indexed": true,
          "internalType": "address",
          "name": "user",
          "type": "address"
        }
      ],
      "name": "FileAccessGranted",
      "type": "event"
    },
    {
      "anonymous": false,
      "inputs": [
        {
          "indexed": true,
          "internalType": "string",
          "name": "ipfsHash",
          "type": "string"
        },
        {
          "indexed": true,
          "internalType": "address",
          "name": "owner",
          "type": "address"
        },
        {
          "indexed": true,
          "internalType": "address",
          "name": "user",
          "type": "address"
        }
      ],
      "name": "FileAccessRevoked",
      "type": "event"
    },
    {
      "anonymous": false,
      "inputs": [
        {
          "indexed": true,
          "internalType": "string",
          "name": "ipfsHash",
          "type": "string"
        },
        {
          "indexed": true,
          "internalType": "address",
          "name": "owner",
          "type": "address"
        }
      ],
      "name": "FileDeleted",
      "type": "event"
    },
    {
      "anonymous": false,
      "inputs": [
        {
          "indexed": true,
          "internalType": "string",
          "name": "ipfsHash",
          "type": "string"
        },
        {
          "indexed": true,
          "internalType": "address",
          "name": "owner",
          "type": "address"
        },
        {
          "indexed": false,
          "internalType": "uint256",
          "name": "timestamp",
          "type": "uint256"
        },
        {
          "indexed": false,
          "internalType": "bool",
          "name": "isEncrypted",
          "type": "bool"
        },
        {
          "indexed": false,
          "internalType": "bool",
          "name": "isPublic",
          "type": "bool"
        }
      ],
      "name": "FileUploaded",
      "type": "event"
    },
    {
      "anonymous": false,
      "inputs": [
        {
          "indexed": true,
          "internalType": "bytes32",
          "name": "role",
          "type": "bytes32"
        },
        {
          "indexed": true,
          "internalType": "bytes32",
          "name": "previousAdminRole",
          "type": "bytes32"
        },
        {
          "indexed": true,
          "internalType": "bytes32",
          "name": "newAdminRole",
          "type": "bytes32"
        }
      ],
      "name": "RoleAdminChanged",
      "type": "event"
    },
    {
      "anonymous": false,
      "inputs": [
        {
          "indexed": true,
          "internalType": "bytes32",
          "name": "role",
          "type": "bytes32"
        },
        {
          "indexed": true,
          "internalType": "address",
          "name": "account",
          "type": "address"
        },
        {
          "indexed": true,
          "internalType": "address",
          "name": "sender",
          "type": "address"
        }
      ],
      "name": "RoleGranted",
      "type": "event"
    },
    {
      "anonymous": false,
      "inputs": [
        {
          "indexed": true,
          "internalType": "bytes32",
          "name": "role",
          "type": "bytes32"
        },
        {
          "indexed": true,
          "internalType": "address",
          "name": "account",
          "type": "address"
        },
        {
          "indexed": true,
          "internalType": "address",
          "name": "sender",
          "type": "address"
        }
      ],
      "name": "RoleRevoked",
      "type": "event"
    },
    {
      "inputs": [],
      "name": "DEFAULT_ADMIN_ROLE",
      "outputs": [
        {
          "internalType": "bytes32",
          "name": "",
          "type": "bytes32"
        }
      ],
      "stateMutability": "view",
      "type": "function"
    },
    {
      "inputs": [],
      "name": "OWNER_ROLE",
      "outputs": [
        {
          "internalType": "bytes32",
          "name": "",
          "type": "bytes32"
        }
      ],
      "stateMutability": "view",
      "type": "function"
    },
    {
      "inputs": [
        {
          "internalType": "uint256",
          "name": "_duration",
          "type": "uint256"
        }
      ],
      "name": "calculateStorageCost",
      "outputs": [
        {
          "internalType": "uint256",
          "name": "",
          "type": "uint256"
        }
      ],
      "stateMutability": "view",
      "type": "function"
    },
    {
      "inputs": [
        {
          "internalType": "string",
          "name": "_ipfsHash",
          "type": "string"
        }
      ],
      "name": "deleteFile",
      "outputs": [],
      "stateMutability": "nonpayable",
      "type": "function"
    },
    {
      "inputs": [
        {
          "internalType": "string",
          "name": "",
          "type": "string"
        },
        {
          "internalType": "address",
          "name": "",
          "type": "address"
        }
      ],
      "name": "fileAccess",
      "outputs": [
        {
          "internalType": "bool",
          "name": "",
          "type": "bool"
        }
      ],
      "stateMutability": "view",
      "type": "function"
    },
    {
      "inputs": [
        {
          "internalType": "string",
          "name": "",
          "type": "string"
        }
      ],
      "name": "files",
      "outputs": [
        {
          "internalType": "string",
          "name": "ipfsHash",
          "type": "string"
        },
        {
          "internalType": "address",
          "name": "owner",
          "type": "address"
        },
        {
          "internalType": "uint256",
          "name": "timestamp",
          "type": "uint256"
        },
        {
          "internalType": "bool",
          "name": "isEncrypted",
          "type": "bool"
        },
        {
          "internalType": "bool",
          "name": "isPublic",
          "type": "bool"
        },
        {
          "internalType": "uint256",
          "name": "storageCost",
          "type": "uint256"
        },
        {
          "internalType": "uint256",
          "name": "expiryDate",
          "type": "uint256"
        }
      ],
      "stateMutability": "view",
      "type": "function"
    },
    {
      "inputs": [
        {
          "internalType": "string",
          "name": "_ipfsHash",
          "type": "string"
        }
      ],
      "name": "getFile",
      "outputs": [
        {
          "components": [
            {
              "internalType": "string",
              "name": "ipfsHash",
              "type": "string"
            },
            {
              "internalType": "address",
              "name": "owner",
              "type": "address"
            },
            {
              "internalType": "uint256",
              "name": "timestamp",
              "type": "uint256"
            },
            {
              "internalType": "bool",
              "name": "isEncrypted",
              "type": "bool"
            },
            {
              "internalType": "bool",
              "name": "isPublic",
              "type": "bool"
            },
            {
              "internalType": "uint256",
              "name": "storageCost",
              "type": "uint256"
            },
            {
              "internalType": "uint256",
              "name": "expiryDate",
              "type": "uint256"
            }
          ],
          "internalType": "struct FileStorage.File",
          "name": "",
          "type": "tuple"
        }
      ],
      "stateMutability": "view",
      "type": "function"
    },
    {
      "inputs": [
        {
          "internalType": "bytes32",
          "name": "role",
          "type": "bytes32"
        }
      ],
      "name": "getRoleAdmin",
      "outputs": [
        {
          "internalType": "bytes32",
          "name": "",
          "type": "bytes32"
        }
      ],
      "stateMutability": "view",
      "type": "function"
    },
    {
      "inputs": [
        {
          "internalType": "address",
          "name": "_user",
          "type": "address"
        }
      ],
      "name": "getUserFiles",
      "outputs": [
        {
          "internalType": "string[]",
          "name": "",
          "type": "string[]"
        }
      ],
      "stateMutability": "view",
      "type": "function"
    },
    {
      "inputs": [
        {
          "internalType": "string",
          "name": "_ipfsHash",
          "type": "string"
        },
        {
          "internalType": "address",
          "name": "_user",
          "type": "address"
        }
      ],
      "name": "grantAccess",
      "outputs": [],
      "stateMutability": "nonpayable",
      "type": "function"
    },
    {
      "inputs": [
        {
          "internalType": "bytes32",
          "name": "role",
          "type": "bytes32"
        },
        {
          "internalType": "address",
          "name": "account",
          "type": "address"
        }
      ],
      "name": "grantRole",
      "outputs": [],
      "stateMutability": "nonpayable",
      "type": "function"
    },
    {
      "inputs": [
        {
          "internalType": "bytes32",
          "name": "role",
          "type": "bytes32"
        },
        {
          "internalType": "address",
          "name": "account",
          "type": "address"
        }
      ],
      "name": "hasRole",
      "outputs": [
        {
          "internalType": "bool",
          "name": "",
          "type": "bool"
        }
      ],
      "stateMutability": "view",
      "type": "function"
    },
    {
      "inputs": [],
      "name": "paymentToken",
      "outputs": [
        {
          "internalType": "contract IERC20",
          "name": "",
          "type": "address"
        }
      ],
      "stateMutability": "view",
      "type": "function"
    },
    {
      "inputs": [
        {
          "internalType": "bytes32",
          "name": "role",
          "type": "bytes32"
        },
        {
          "internalType": "address",
          "name": "callerConfirmation",
          "type": "address"
        }
      ],
      "name": "renounceRole",
      "outputs": [],
      "stateMutability": "nonpayable",
      "type": "function"
    },
    {
      "inputs": [
        {
          "internalType": "string",
          "name": "_ipfsHash",
          "type": "string"
        },
        {
          "internalType": "address",
          "name": "_user",
          "type": "address"
        }
      ],
      "name": "revokeAccess",
      "outputs": [],
      "stateMutability": "nonpayable",
      "type": "function"
    },
    {
      "inputs": [
        {
          "internalType": "bytes32",
          "name": "role",
          "type": "bytes32"
        },
        {
          "internalType": "address",
          "name": "account",
          "type": "address"
        }
      ],
      "name": "revokeRole",
      "outputs": [],
      "stateMutability": "nonpayable",
      "type": "function"
    },
    {
      "inputs": [
        {
          "internalType": "uint256",
          "name": "_pricePerDay",
          "type": "uint256"
        }
      ],
      "name": "setStoragePrice",
      "outputs": [],
      "stateMutability": "nonpayable",
      "type": "function"
    },
    {
      "inputs": [],
      "name": "storagePricePerDay",
      "outputs": [
        {
          "internalType": "uint256",
          "name": "",
          "type": "uint256"
        }
      ],
      "stateMutability": "view",
      "type": "function"
    },
    {
      "inputs": [
        {
          "internalType": "bytes4",
          "name": "interfaceId",
          "type": "bytes4"
        }
      ],
      "name": "supportsInterface",
      "outputs": [
        {
          "internalType": "bool",
          "name": "",
          "type": "bool"
        }
      ],
      "stateMutability": "view",
      "type": "function"
    },
    {
      "inputs": [
        {
          "internalType": "string",
          "name": "_ipfsHash",
          "type": "string"
        },
        {
          "internalType": "bool",
          "name": "_isEncrypted",
          "type": "bool"
        },
        {
          "internalType": "bool",
          "name": "_isPublic",
          "type": "bool"
        },
        {
          "internalType": "uint256",
          "name": "_storageDuration",
          "type": "uint256"
        }
      ],
      "name": "uploadFile",
      "outputs": [],
      "stateMutability": "payable",
      "type": "function"
    },
    {
      "inputs": [
        {
          "internalType": "address",
          "name": "",
          "type": "address"
        },
        {
          "internalType": "uint256",
          "name": "",
          "type": "uint256"
        }
      ],
      "name": "userFiles",
      "outputs": [
        {
          "internalType": "string",
          "name": "",
          "type": "string"
        }
      ],
      "stateMutability": "view",
      "type": "function"
    },
    {
      "inputs": [],
      "name": "withdrawFunds",
      "outputs": [],
      "stateMutability": "nonpayable",
      "type": "function"
    }
  ],
  "bytecode": "0x608060405264174876e8006005553480156200001a57600080fd5b5060405162001c4038038062001c408339810160408190526200003d91620001fe565b600180556001600160a01b0381166200009c5760405162461bcd60e51b815260206004820152601d60248201527f496e76616c6964207061796d656e7420746f6b656e2061646472657373000000604482015260640160405180910390fd5b600680546001600160a01b0319166001600160a01b038316179055620000c460003362000104565b50620000e060008051602062001c208339815191523362000104565b50620000fd60008051602062001c208339815191526000620001b3565b5062000230565b6000828152602081815260408083206001600160a01b038516845290915281205460ff16620001a9576000838152602081815260408083206001600160a01b03861684529091529020805460ff19166001179055620001603390565b6001600160a01b0316826001600160a01b0316847f2f8788117e7eff1d82e926ec794901d17c78024a50270940304540a733656f0d60405160405180910390a4506001620001ad565b5060005b92915050565b600082815260208190526040808220600101805490849055905190918391839186917fbd79b86ffe0ab8e8776151514217cd7cacd52c909f66475c3af44e129f0b00ff9190a4505050565b6000602082840312156200021157600080fd5b81516001600160a01b03811681146200022957600080fd5b9392505050565b6119e080620002406000396000f3fe6080604052600436106101355760003560e01c806372492e13116100ab578063d547741f1161006f578063d547741f1461039f578063dfe0b5fe146103bf578063e0876aa8146103df578063e58378bb1461040c578063e775576114610440578063f37c215e1461047357600080fd5b806372492e131461031757806391d148541461032a578063a217fddf1461034a578063a99100541461035f578063bdce31611461037f57600080fd5b80632f2ff15d116100fd5780632f2ff15d1461023c5780633013ce291461025c57806336568abe14610294578063590f44bf146102b45780636e838911146102ca578063718f38a6146102ea57600080fd5b806301ffc9a71461013a57806306251e601461016f5780631fc37922146101ba57806324600fc3146101e7578063248a9ca3146101fe575b600080fd5b34801561014657600080fd5b5061015a6101553660046113e9565b610493565b60405190151581526020015b60405180910390f35b34801561017b57600080fd5b5061015a61018a3660046114d9565b81516020818401810180516004825292820194820194909420919093529091526000908152604090205460ff1681565b3480156101c657600080fd5b506101da6101d5366004611527565b6104ca565b6040516101669190611592565b3480156101f357600080fd5b506101fc6105b9565b005b34801561020a57600080fd5b5061022e6102193660046115f4565b60009081526020819052604090206001015490565b604051908152602001610166565b34801561024857600080fd5b506101fc61025736600461160d565b6106bc565b34801561026857600080fd5b5060065461027c906001600160a01b031681565b6040516001600160a01b039091168152602001610166565b3480156102a057600080fd5b506101fc6102af36600461160d565b6106e7565b3480156102c057600080fd5b5061022e60055481565b3480156102d657600080fd5b506101fc6102e53660046115f4565b61071a565b3480156102f657600080fd5b5061030a610305366004611630565b61074a565b604051610166919061165a565b6101fc61032536600461167d565b610803565b34801561033657600080fd5b5061015a61034536600461160d565b610a91565b34801561035657600080fd5b5061022e600081565b34801561036b57600080fd5b506101fc61037a3660046116e3565b610aba565b34801561038b57600080fd5b5061022e61039a3660046115f4565b610bb1565b3480156103ab57600080fd5b506101fc6103ba36600461160d565b610bc1565b3480156103cb57600080fd5b506101fc6103da3660046114d9565b610be6565b3480156103eb57600080fd5b506103ff6103fa3660046116e3565b610d3e565b6040516101669190611720565b34801561041857600080fd5b5061022e7fb19546dff01e856fb3f010c267a7b1c60363cf8a4664e21cc89c26224620214e81565b34801561044c57600080fd5b5061046061045b3660046116e3565b610fee565b6040516101669796959493929190611791565b34801561047f57600080fd5b506101fc61048e3660046114d9565b6110cd565b60006001600160e01b03198216637965db0b60e01b14806104c457506301ffc9a760e01b6001600160e01b03198316145b92915050565b6001600160a01b0381166000908152600360209081526040808320805482518185028101850190935280835260609492939192909184015b828210156105ae578382906000526020600020018054610521906117de565b80601f016020809104026020016040519081016040528092919081815260200182805461054d906117de565b801561059a5780601f1061056f5761010080835404028352916020019161059a565b820191906000526020600020905b81548152906001019060200180831161057d57829003601f168201915b505050505081526020019060010190610502565b505050509050919050565b7fb19546dff01e856fb3f010c267a7b1c60363cf8a4664e21cc89c26224620214e6105e38161122a565b478061062d5760405162461bcd60e51b81526020600482015260146024820152734e6f2066756e647320746f20776974686472617760601b60448201526064015b60405180910390fd5b604051600090339083908381818185875af1925050503d806000811461066f576040519150601f19603f3d011682016040523d82523d6000602084013e610674565b606091505b50509050806106b75760405162461bcd60e51b815260206004820152600f60248201526e151c985b9cd9995c8819985a5b1959608a1b6044820152606401610624565b505050565b6000828152602081905260409020600101546106d78161122a565b6106e18383611237565b50505050565b6001600160a01b03811633146107105760405163334bd91960e11b815260040160405180910390fd5b6106b782826112c9565b7fb19546dff01e856fb3f010c267a7b1c60363cf8a4664e21cc89c26224620214e6107448161122a565b50600555565b6003602052816000526040600020818154811061076657600080fd5b90600052602060002001600091509150508054610782906117de565b80601f01602080910402602001604051908101604052809291908181526020018280546107ae906117de565b80156107fb5780601f106107d0576101008083540402835291602001916107fb565b820191906000526020600020905b8154815290600101906020018083116107de57829003601f168201915b505050505081565b61080b611334565b60008451116108505760405162461bcd60e51b8152602060048201526011602482015270092dcecc2d8d2c84092a08ca640d0c2e6d607b1b6044820152606401610624565b600081118015610862575061016d8111155b6108ae5760405162461bcd60e51b815260206004820152601860248201527f496e76616c69642073746f72616765206475726174696f6e00000000000000006044820152606401610624565b60006108b982610bb1565b9050803410156109025760405162461bcd60e51b8152602060048201526014602482015273125b9cdd59999a58da595b9d081c185e5b595b9d60621b6044820152606401610624565b6040518060e00160405280868152602001336001600160a01b0316815260200142815260200185151581526020018415158152602001828152602001836201518061094d919061182e565b6109579042611845565b81525060028660405161096a9190611858565b9081526040519081900360200190208151819061098790826118c2565b50602082810151600180840180546001600160a01b039093166001600160a01b0319909316929092179091556040808501516002850155606085015160038086018054608089015115156101000261ff00199415159490941661ffff19909116179290921790915560a0860151600486015560c09095015160059094019390935533600090815293825291832080549283018155835290912001610a2b86826118c2565b506040513390610a3c908790611858565b60408051918290038220428352871515602084015286151583830152905190917f31509c5dae16383961e64dc8189c02b91bb70b76936231e462b1f9456bd4eebe919081900360600190a3506106e160018055565b6000918252602082815260408084206001600160a01b0393909316845291905290205460ff1690565b336001600160a01b0316600282604051610ad49190611858565b908152604051908190036020019020600101546001600160a01b031614610b0d5760405162461bcd60e51b815260040161062490611982565b600281604051610b1d9190611858565b9081526040519081900360200190206000610b38828261139b565b506001810180546001600160a01b031916905560006002820181905560038201805461ffff19169055600482018190556005909101556040513390610b7e908390611858565b604051908190038120907fb7f404dbaa1b2ab0528fd20ea00c12bcd6d8d8e57a5e63af5710d9031e62ef1f90600090a350565b6000816005546104c4919061182e565b600082815260208190526040902060010154610bdc8161122a565b6106e183836112c9565b336001600160a01b0316600283604051610c009190611858565b908152604051908190036020019020600101546001600160a01b031614610c395760405162461bcd60e51b815260040161062490611982565b600482604051610c499190611858565b90815260408051602092819003830190206001600160a01b0384166000908152925290205460ff16610cb25760405162461bcd60e51b81526020600482015260126024820152711058d8d95cdcc81b9bdd0819dc985b9d195960721b6044820152606401610624565b6000600483604051610cc49190611858565b90815260408051602092819003830181206001600160a01b03861660008181529190945291909120805460ff191693151593909317909255903390610d0a908590611858565b604051908190038120907f7308569f6dfcd67c0c659ba6c3dc4a20b3841cdf9d66bb920642ca7405b7544f90600090a45050565b610d8b6040518060e001604052806060815260200160006001600160a01b031681526020016000815260200160001515815260200160001515815260200160008152602001600081525090565b60006001600160a01b0316600283604051610da69190611858565b908152604051908190036020019020600101546001600160a01b031603610e005760405162461bcd60e51b815260206004820152600e60248201526d119a5b19481b9bdd08199bdd5b9960921b6044820152606401610624565b336001600160a01b0316600283604051610e1a9190611858565b908152604051908190036020019020600101546001600160a01b03161480610e6a5750600282604051610e4d9190611858565b9081526040519081900360200190206003015460ff610100909104165b80610ea05750600482604051610e809190611858565b9081526040805160209281900383019020336000908152925290205460ff165b610edc5760405162461bcd60e51b815260206004820152600d60248201526c1058d8d95cdcc819195b9a5959609a1b6044820152606401610624565b600282604051610eec9190611858565b90815260200160405180910390206040518060e0016040529081600082018054610f15906117de565b80601f0160208091040260200160405190810160405280929190818152602001828054610f41906117de565b8015610f8e5780601f10610f6357610100808354040283529160200191610f8e565b820191906000526020600020905b815481529060010190602001808311610f7157829003601f168201915b505050918352505060018201546001600160a01b0316602082015260028201546040820152600382015460ff808216151560608401526101009091041615156080820152600482015460a082015260059091015460c09091015292915050565b8051602081830181018051600282529282019190930120915280548190611014906117de565b80601f0160208091040260200160405190810160405280929190818152602001828054611040906117de565b801561108d5780601f106110625761010080835404028352916020019161108d565b820191906000526020600020905b81548152906001019060200180831161107057829003601f168201915b50505050600183015460028401546003850154600486015460059096015494956001600160a01b039093169491935060ff80821693610100909204169187565b336001600160a01b03166002836040516110e79190611858565b908152604051908190036020019020600101546001600160a01b0316146111205760405162461bcd60e51b815260040161062490611982565b6004826040516111309190611858565b90815260408051602092819003830190206001600160a01b0384166000908152925290205460ff161561119e5760405162461bcd60e51b81526020600482015260166024820152751058d8d95cdcc8185b1c9958591e4819dc985b9d195960521b6044820152606401610624565b60016004836040516111b09190611858565b90815260408051602092819003830181206001600160a01b03861660008181529190945291909120805460ff1916931515939093179092559033906111f6908590611858565b604051908190038120907f395fac784e0a52363e22eb41126b9d5ea78f3eeb42569ca764735494486f77a090600090a45050565b611234813361135e565b50565b60006112438383610a91565b6112c1576000838152602081815260408083206001600160a01b03861684529091529020805460ff191660011790556112793390565b6001600160a01b0316826001600160a01b0316847f2f8788117e7eff1d82e926ec794901d17c78024a50270940304540a733656f0d60405160405180910390a45060016104c4565b5060006104c4565b60006112d58383610a91565b156112c1576000838152602081815260408083206001600160a01b0386168085529252808320805460ff1916905551339286917ff6391f5c32d9c69d2a47ea670b442974b53935d1edc7fd64eb21e047a839171b9190a45060016104c4565b60026001540361135757604051633ee5aeb560e01b815260040160405180910390fd5b6002600155565b6113688282610a91565b6113975760405163e2517d3f60e01b81526001600160a01b038216600482015260248101839052604401610624565b5050565b5080546113a7906117de565b6000825580601f106113b7575050565b601f01602090049060005260206000209081019061123491905b808211156113e557600081556001016113d1565b5090565b6000602082840312156113fb57600080fd5b81356001600160e01b03198116811461141357600080fd5b9392505050565b634e487b7160e01b600052604160045260246000fd5b600082601f83011261144157600080fd5b813567ffffffffffffffff8082111561145c5761145c61141a565b604051601f8301601f19908116603f011681019082821181831017156114845761148461141a565b8160405283815286602085880101111561149d57600080fd5b836020870160208301376000602085830101528094505050505092915050565b80356001600160a01b03811681146114d457600080fd5b919050565b600080604083850312156114ec57600080fd5b823567ffffffffffffffff81111561150357600080fd5b61150f85828601611430565b92505061151e602084016114bd565b90509250929050565b60006020828403121561153957600080fd5b611413826114bd565b60005b8381101561155d578181015183820152602001611545565b50506000910152565b6000815180845261157e816020860160208601611542565b601f01601f19169290920160200192915050565b6000602080830181845280855180835260408601915060408160051b870101925083870160005b828110156115e757603f198886030184526115d5858351611566565b945092850192908501906001016115b9565b5092979650505050505050565b60006020828403121561160657600080fd5b5035919050565b6000806040838503121561162057600080fd5b8235915061151e602084016114bd565b6000806040838503121561164357600080fd5b61164c836114bd565b946020939093013593505050565b6020815260006114136020830184611566565b803580151581146114d457600080fd5b6000806000806080858703121561169357600080fd5b843567ffffffffffffffff8111156116aa57600080fd5b6116b687828801611430565b9450506116c56020860161166d565b92506116d36040860161166d565b9396929550929360600135925050565b6000602082840312156116f557600080fd5b813567ffffffffffffffff81111561170c57600080fd5b61171884828501611430565b949350505050565b602081526000825160e0602084015261173d610100840182611566565b905060018060a01b036020850151166040840152604084015160608401526060840151151560808401526080840151151560a084015260a084015160c084015260c084015160e08401528091505092915050565b60e0815260006117a460e083018a611566565b6001600160a01b039890981660208301525060408101959095529215156060850152901515608084015260a083015260c090910152919050565b600181811c908216806117f257607f821691505b60208210810361181257634e487b7160e01b600052602260045260246000fd5b50919050565b634e487b7160e01b600052601160045260246000fd5b80820281158282048414176104c4576104c4611818565b808201808211156104c4576104c4611818565b6000825161186a818460208701611542565b9190910192915050565b601f8211156106b757600081815260208120601f850160051c8101602086101561189b5750805b601f850160051c820191505b818110156118ba578281556001016118a7565b505050505050565b815167ffffffffffffffff8111156118dc576118dc61141a565b6118f0816118ea84546117de565b84611874565b602080601f831160018114611925576000841561190d5750858301515b600019600386901b1c1916600185901b1785556118ba565b600085815260208120601f198616915b8281101561195457888601518255948401946001909101908401611935565b50858210156119725787850151600019600388901b60f8161c191681555b5050505050600190811b01905550565b6020808252600e908201526d2737ba103334b6329037bbb732b960911b60408201526060019056fea2646970667358221220130c21b28cc236d429c498f0a636d00f38a9076c3899eb01bfd47f02954300ca64736f6c63430008140033b19546dff01e856fb3f010c267a7b1c60363cf8a4664e21cc89c26224620214e",
  "linkReferences": {},
  "deployedLinkReferences": {}
}